{
  "contractName": "CampaignManager",
  "abi": [
    {
      "constant": true,
      "inputs": [
        {
          "name": "",
          "type": "uint256"
        }
      ],
      "name": "campaigns",
      "outputs": [
        {
          "name": "manager",
          "type": "address"
        },
        {
          "name": "startingTime",
          "type": "uint256"
        },
        {
          "name": "endingTime",
          "type": "uint256"
        },
        {
          "name": "balance",
          "type": "uint256"
        },
        {
          "name": "goal",
          "type": "uint256"
        },
        {
          "name": "state",
          "type": "uint8"
        },
        {
          "name": "ipfsHash",
          "type": "string"
        },
        {
          "name": "presalePrice",
          "type": "uint256"
        },
        {
          "name": "postsalePrice",
          "type": "uint256"
        }
      ],
      "payable": false,
      "stateMutability": "view",
      "type": "function"
    },
    {
      "constant": true,
      "inputs": [],
      "name": "emergencyStop_stopFunding",
      "outputs": [
        {
          "name": "",
          "type": "bool"
        }
      ],
      "payable": false,
      "stateMutability": "view",
      "type": "function"
    },
    {
      "constant": false,
      "inputs": [
        {
          "name": "impl",
          "type": "address"
        }
      ],
      "name": "upgradeTo",
      "outputs": [],
      "payable": false,
      "stateMutability": "nonpayable",
      "type": "function"
    },
    {
      "constant": true,
      "inputs": [],
      "name": "implementation",
      "outputs": [
        {
          "name": "",
          "type": "address"
        }
      ],
      "payable": false,
      "stateMutability": "view",
      "type": "function"
    },
    {
      "constant": true,
      "inputs": [],
      "name": "emergencyStop_stopCreation",
      "outputs": [
        {
          "name": "",
          "type": "bool"
        }
      ],
      "payable": false,
      "stateMutability": "view",
      "type": "function"
    },
    {
      "constant": false,
      "inputs": [],
      "name": "renounceOwnership",
      "outputs": [],
      "payable": false,
      "stateMutability": "nonpayable",
      "type": "function"
    },
    {
      "constant": true,
      "inputs": [],
      "name": "campaignCount",
      "outputs": [
        {
          "name": "",
          "type": "uint256"
        }
      ],
      "payable": false,
      "stateMutability": "view",
      "type": "function"
    },
    {
      "constant": true,
      "inputs": [],
      "name": "owner",
      "outputs": [
        {
          "name": "",
          "type": "address"
        }
      ],
      "payable": false,
      "stateMutability": "view",
      "type": "function"
    },
    {
      "constant": false,
      "inputs": [
        {
          "name": "_newOwner",
          "type": "address"
        }
      ],
      "name": "transferOwnership",
      "outputs": [],
      "payable": false,
      "stateMutability": "nonpayable",
      "type": "function"
    },
    {
      "inputs": [],
      "payable": false,
      "stateMutability": "nonpayable",
      "type": "constructor"
    },
    {
      "payable": true,
      "stateMutability": "payable",
      "type": "fallback"
    },
    {
      "anonymous": false,
      "inputs": [
        {
          "indexed": true,
          "name": "implementation",
          "type": "address"
        }
      ],
      "name": "Upgraded",
      "type": "event"
    },
    {
      "anonymous": false,
      "inputs": [
        {
          "indexed": true,
          "name": "previousOwner",
          "type": "address"
        }
      ],
      "name": "OwnershipRenounced",
      "type": "event"
    },
    {
      "anonymous": false,
      "inputs": [
        {
          "indexed": true,
          "name": "previousOwner",
          "type": "address"
        },
        {
          "indexed": true,
          "name": "newOwner",
          "type": "address"
        }
      ],
      "name": "OwnershipTransferred",
      "type": "event"
    },
    {
      "constant": false,
      "inputs": [],
      "name": "enableEmergencyStop_Creation",
      "outputs": [],
      "payable": false,
      "stateMutability": "nonpayable",
      "type": "function"
    },
    {
      "constant": false,
      "inputs": [],
      "name": "enableEmergencyStop_Funding",
      "outputs": [],
      "payable": false,
      "stateMutability": "nonpayable",
      "type": "function"
    },
    {
      "constant": false,
      "inputs": [
        {
          "name": "_startingTime",
          "type": "uint256"
        },
        {
          "name": "_endingTime",
          "type": "uint256"
        },
        {
          "name": "_goal",
          "type": "uint256"
        },
        {
          "name": "_ipfsHash",
          "type": "string"
        },
        {
          "name": "_presalePrice",
          "type": "uint256"
        },
        {
          "name": "_postsalePrice",
          "type": "uint256"
        }
      ],
      "name": "createCampaign",
      "outputs": [
        {
          "name": "",
          "type": "uint256"
        }
      ],
      "payable": false,
      "stateMutability": "nonpayable",
      "type": "function"
    },
    {
      "constant": false,
      "inputs": [
        {
          "name": "_campaignID",
          "type": "uint256"
        }
      ],
      "name": "fundCampaign",
      "outputs": [],
      "payable": true,
      "stateMutability": "payable",
      "type": "function"
    },
    {
      "constant": false,
      "inputs": [
        {
          "name": "_campaignID",
          "type": "uint256"
        },
        {
          "name": "_value",
          "type": "uint256"
        }
      ],
      "name": "reduceDontation",
      "outputs": [],
      "payable": false,
      "stateMutability": "nonpayable",
      "type": "function"
    },
    {
      "constant": false,
      "inputs": [
        {
          "name": "_campaignID",
          "type": "uint256"
        }
      ],
      "name": "withdrawCampaignFunds",
      "outputs": [],
      "payable": false,
      "stateMutability": "nonpayable",
      "type": "function"
    },
    {
      "constant": false,
      "inputs": [
        {
          "name": "_campaignID",
          "type": "uint256"
        }
      ],
      "name": "refundFailedCampaign",
      "outputs": [],
      "payable": false,
      "stateMutability": "nonpayable",
      "type": "function"
    },
    {
      "constant": false,
      "inputs": [
        {
          "name": "_campaignID",
          "type": "uint256"
        },
        {
          "name": "_newHash",
          "type": "string"
        }
      ],
      "name": "updateIpfsHash",
      "outputs": [],
      "payable": false,
      "stateMutability": "nonpayable",
      "type": "function"
    },
    {
      "constant": true,
      "inputs": [
        {
          "name": "_campaignID",
          "type": "uint256"
        }
      ],
      "name": "fetchCampaign",
      "outputs": [
        {
          "name": "manager",
          "type": "address"
        },
        {
          "name": "startingTime",
          "type": "uint256"
        },
        {
          "name": "endingTime",
          "type": "uint256"
        },
        {
          "name": "balance",
          "type": "uint256"
        },
        {
          "name": "goal",
          "type": "uint256"
        },
        {
          "name": "state",
          "type": "uint8"
        },
        {
          "name": "donersAddresses",
          "type": "address[]"
        },
        {
          "name": "ipfsHash",
          "type": "string"
        },
        {
          "name": "presalePrice",
          "type": "uint256"
        },
        {
          "name": "postsalePrice",
          "type": "uint256"
        }
      ],
      "payable": false,
      "stateMutability": "view",
      "type": "function"
    }
  ],
  "bytecode": "0x60806040526000600360006101000a81548160ff0219169083151502179055506000600360016101000a81548160ff02191690831515021790555034801561004657600080fd5b50336000806101000a81548173ffffffffffffffffffffffffffffffffffffffff021916908373ffffffffffffffffffffffffffffffffffffffff160217905550336000806101000a81548173ffffffffffffffffffffffffffffffffffffffff021916908373ffffffffffffffffffffffffffffffffffffffff1602179055506000600281905550612e82806100de6000396000f3006080604052600436106100fc576000357c0100000000000000000000000000000000000000000000000000000000900463ffffffff16806314169e2a14610257578063141961bc14610284578063195239f51461039c5780631d6c7364146103b35780631e5b8cb1146103e25780633659cfe61461049157806338144375146104d45780635c60da1b1461050b5780636661d05514610562578063715018a6146105915780637274e30d146105a85780638da5cb5b146105d357806392bd38bc1461062a5780639611c0511461064a578063add33732146106bd578063d7f05db3146106ea578063f2fde38b1461084a578063fc517a131461088d575b600060606101086108a4565b9150600073ffffffffffffffffffffffffffffffffffffffff168273ffffffffffffffffffffffffffffffffffffffff16141515156101fb576040517f08c379a000000000000000000000000000000000000000000000000000000000815260040180806020018281038252605a8152602001807f54686520696d706c656d656e746174696f6e20616464726573732073686f756c81526020017f64206e6f7420626520746865206275726e206164647265737320286e6f6e2d6981526020017f6d706c656d656e7465642070726f787920636f6e74726163742900000000000081525060600191505060405180910390fd5b6000368080601f0160208091040260200160405190810160405280939291908181526020018383808284378201915050505050509050600080825160208401855af43d604051816000823e8260008114610253578282f35b8282fd5b34801561026357600080fd5b50610282600480360381019080803590602001909291905050506108ce565b005b34801561029057600080fd5b506102af60048036038101908080359060200190929190505050610d0d565b604051808a73ffffffffffffffffffffffffffffffffffffffff1673ffffffffffffffffffffffffffffffffffffffff16815260200189815260200188815260200187815260200186815260200185600381111561030957fe5b60ff16815260200180602001848152602001838152602001828103825285818151815260200191508051906020019080838360005b8381101561035957808201518184015260208101905061033e565b50505050905090810190601f1680156103865780820380516001836020036101000a031916815260200191505b509a505050505050505050505060405180910390f35b3480156103a857600080fd5b506103b1610e20565b005b3480156103bf57600080fd5b506103c8610e98565b604051808215151515815260200191505060405180910390f35b3480156103ee57600080fd5b5061047b600480360381019080803590602001909291908035906020019092919080359060200190929190803590602001908201803590602001908080601f01602080910402602001604051908101604052809392919081815260200183838082843782019150505050505091929192908035906020019092919080359060200190929190505050610eab565b6040518082815260200191505060405180910390f35b34801561049d57600080fd5b506104d2600480360381019080803573ffffffffffffffffffffffffffffffffffffffff16906020019092919050505061122a565b005b3480156104e057600080fd5b5061050960048036038101908080359060200190929190803590602001909291905050506113f8565b005b34801561051757600080fd5b506105206108a4565b604051808273ffffffffffffffffffffffffffffffffffffffff1673ffffffffffffffffffffffffffffffffffffffff16815260200191505060405180910390f35b34801561056e57600080fd5b506105776119a0565b604051808215151515815260200191505060405180910390f35b34801561059d57600080fd5b506105a66119b3565b005b3480156105b457600080fd5b506105bd611ab5565b6040518082815260200191505060405180910390f35b3480156105df57600080fd5b506105e8611abb565b604051808273ffffffffffffffffffffffffffffffffffffffff1673ffffffffffffffffffffffffffffffffffffffff16815260200191505060405180910390f35b61064860048036038101908080359060200190929190505050611ae0565b005b34801561065657600080fd5b506106bb60048036038101908080359060200190929190803590602001908201803590602001908080601f016020809104026020016040519081016040528093929190818152602001838380828437820191505050505050919291929050505061203e565b005b3480156106c957600080fd5b506106e860048036038101908080359060200190929190505050612223565b005b3480156106f657600080fd5b506107156004803603810190808035906020019092919050505061280e565b604051808b73ffffffffffffffffffffffffffffffffffffffff1673ffffffffffffffffffffffffffffffffffffffff1681526020018a815260200189815260200188815260200187815260200186600381111561076f57fe5b60ff1681526020018060200180602001858152602001848152602001838103835287818151815260200191508051906020019060200280838360005b838110156107c65780820151818401526020810190506107ab565b50505050905001838103825286818151815260200191508051906020019080838360005b838110156108055780820151818401526020810190506107ea565b50505050905090810190601f1680156108325780820380516001836020036101000a031916815260200191505b509c5050505050505050505050505060405180910390f35b34801561085657600080fd5b5061088b600480360381019080803573ffffffffffffffffffffffffffffffffffffffff169060200190929190505050612a8b565b005b34801561089957600080fd5b506108a2612af2565b005b6000600160009054906101000a900473ffffffffffffffffffffffffffffffffffffffff16905090565b806004600082815260200190815260200160002060000160009054906101000a900473ffffffffffffffffffffffffffffffffffffffff1673ffffffffffffffffffffffffffffffffffffffff163373ffffffffffffffffffffffffffffffffffffffff161415156109ce576040517f08c379a00000000000000000000000000000000000000000000000000000000081526004018080602001828103825260298152602001807f5468652063616c6c65722073686f756c6420626520657175616c20746f20746881526020017f65206d616e61676572000000000000000000000000000000000000000000000081525060400191505060405180910390fd5b81600460008281526020019081526020016000206002015442111515610aa8576040517f08c379a000000000000000000000000000000000000000000000000000000000815260040180806020018281038252604c8152602001807f43757272656e742074696d65206d75737420626520626967676572207468616e81526020017f2074686520656e642074696d6520666f72207468652063616d706169676e207481526020017f6f206861766520656e646564000000000000000000000000000000000000000081525060600191505060405180910390fd5b8260046000828152602001908152602001600020600401546004600083815260200190815260200160002060030154111515610b72576040517f08c379a00000000000000000000000000000000000000000000000000000000081526004018080602001828103825260368152602001807f5468652062616c616e6365206f66207468652063616d706169676e206d75737481526020017f206265206d6f7265207468616e2074686520676f616c0000000000000000000081525060400191505060405180910390fd5b8360026003811115610b8057fe5b6004600083815260200190815260200160002060050160009054906101000a900460ff166003811115610baf57fe5b14151515610c71576040517f08c379a000000000000000000000000000000000000000000000000000000000815260040180806020018281038252604b8152602001807f546865207374617465206f66207468652063616d706169676e206d757374206281526020017f65206e6f742066756e64656420746f20646566696e6520616e20756e66756e6481526020017f65642063616d706169676e00000000000000000000000000000000000000000081525060600191505060405180910390fd5b60026004600087815260200190815260200160002060050160006101000a81548160ff02191690836003811115610ca457fe5b02179055503373ffffffffffffffffffffffffffffffffffffffff166108fc60046000888152602001908152602001600020600301549081150290604051600060405180830381858888f19350505050158015610d05573d6000803e3d6000fd5b505050505050565b60046020528060005260406000206000915090508060000160009054906101000a900473ffffffffffffffffffffffffffffffffffffffff16908060010154908060020154908060030154908060040154908060050160009054906101000a900460ff1690806008018054600181600116156101000203166002900480601f016020809104026020016040519081016040528092919081815260200182805460018160011615610100020316600290048015610e0a5780601f10610ddf57610100808354040283529160200191610e0a565b820191906000526020600020905b815481529060010190602001808311610ded57829003601f168201915b50505050509080600901549080600a0154905089565b6000809054906101000a900473ffffffffffffffffffffffffffffffffffffffff1673ffffffffffffffffffffffffffffffffffffffff163373ffffffffffffffffffffffffffffffffffffffff16141515610e7b57600080fd5b6001600360006101000a81548160ff021916908315150217905550565b600360019054906101000a900460ff1681565b600060608787428210151515610f4f576040517f08c379a00000000000000000000000000000000000000000000000000000000081526004018080602001828103825260388152602001807f46697273746c792c2053746172742074696d65206d757374206265206c61726781526020017f6572207468616e207468652063757272656e742074696d65000000000000000081525060400191505060405180910390fd5b8181111515610fec576040517f08c379a000000000000000000000000000000000000000000000000000000000815260040180806020018281038252603c8152602001807f5365636f6e646c792c2074686520656e642074696d652073686f756c6420626581526020017f206d6f7265207468616e20746865207374617274696e672074696d650000000081525060400191505060405180910390fd5b60001515600360009054906101000a900460ff16151514151561109d576040517f08c379a00000000000000000000000000000000000000000000000000000000081526004018080602001828103825260258152602001807f54686520656d657267656e63792073746f70206372656174696f6e206973206181526020017f637469766500000000000000000000000000000000000000000000000000000081525060400191505060405180910390fd5b610140604051908101604052803373ffffffffffffffffffffffffffffffffffffffff1681526020018b81526020018a815260200160008152602001898152602001600060038111156110ec57fe5b81526020018481526020018881526020018781526020018681525060046000600254815260200190815260200160002060008201518160000160006101000a81548173ffffffffffffffffffffffffffffffffffffffff021916908373ffffffffffffffffffffffffffffffffffffffff1602179055506020820151816001015560408201518160020155606082015181600301556080820151816004015560a08201518160050160006101000a81548160ff021916908360038111156111af57fe5b021790555060c08201518160070190805190602001906111d0929190612c64565b5060e08201518160080190805190602001906111ed929190612cee565b50610100820151816009015561012082015181600a0155905050600160026000828254019250508190555060025493505050509695505050505050565b6000809054906101000a900473ffffffffffffffffffffffffffffffffffffffff1673ffffffffffffffffffffffffffffffffffffffff163373ffffffffffffffffffffffffffffffffffffffff1614151561128557600080fd5b8073ffffffffffffffffffffffffffffffffffffffff16600160009054906101000a900473ffffffffffffffffffffffffffffffffffffffff1673ffffffffffffffffffffffffffffffffffffffff1614151515611371576040517f08c379a000000000000000000000000000000000000000000000000000000000815260040180806020018281038252603d8152602001807f7570677261646520616464726573732073686f756c64206e6f7420626520746881526020017f652073616d65206173207468652063757272656e74206164647265737300000081525060400191505060405180910390fd5b80600160006101000a81548173ffffffffffffffffffffffffffffffffffffffff021916908373ffffffffffffffffffffffffffffffffffffffff1602179055508073ffffffffffffffffffffffffffffffffffffffff167fbc7cd75a20ee27fd9adebab32041f755214dbc6bffa90cc0225b39da2e5c2d3b60405160405180910390a250565b816004600082815260200190815260200160002060010154421115156114d2576040517f08c379a00000000000000000000000000000000000000000000000000000000081526004018080602001828103825260438152602001807f43757272656e742074696d65206d757374206265206c6172676572207468616e81526020017f207374617274696e672074696d6520666f722070726f6a65637420746f20737481526020017f617274000000000000000000000000000000000000000000000000000000000081525060600191505060405180910390fd5b826004600082815260200190815260200160002060020154421015156115ac576040517f08c379a000000000000000000000000000000000000000000000000000000000815260040180806020018281038252604e8152602001807f43757272656e742074696d65206d757374206265206c657373207468616e207481526020017f686520656e642074696d6520666f72207468652063616d706169676e20746f2081526020017f68617665206e6f7420656e64656400000000000000000000000000000000000081525060600191505060405180910390fd5b83836004600083815260200190815260200160002060040154600460008481526020019081526020016000206003015411156116d4576004600083815260200190815260200160002060040154816004600085815260200190815260200160002060030154031115156116d3576040517f08c379a00000000000000000000000000000000000000000000000000000000081526004018080602001828103825260508152602001807f5468652076616c7565206f66207468652063616d706169676e2062616c616e6381526020017f652061667465722074686520726564756374696f6e2077696c6c206265206d6f81526020017f7265207468616e2074686520676f616c0000000000000000000000000000000081525060600191505060405180910390fd5b5b858560008060009150600090505b6004600085815260200190815260200160002060060160003373ffffffffffffffffffffffffffffffffffffffff1673ffffffffffffffffffffffffffffffffffffffff168152602001908152602001600020805490508110156117bc576004600085815260200190815260200160002060060160003373ffffffffffffffffffffffffffffffffffffffff1673ffffffffffffffffffffffffffffffffffffffff168152602001908152602001600020818154811015156117a057fe5b90600052602060002001548201915080806001019150506116e2565b6000838303121515156118a9576040517f08c379a000000000000000000000000000000000000000000000000000000000815260040180806020018281038252606d8152602001807f5468652073756d206f6620616c6c20646f6e6174696f6e7320666f722061207081526020017f6172746963756c617220757365722073686f756c64206265206d6f726520746881526020017f616e203020746f20656e61626c6520616e79206b696e64206f6620646f6e617481526020017f696f6e20726564756374696f6e0000000000000000000000000000000000000081525060800191505060405180910390fd5b88600460008c815260200190815260200160002060030160008282540392505081905550600460008b815260200190815260200160002060060160003373ffffffffffffffffffffffffffffffffffffffff1673ffffffffffffffffffffffffffffffffffffffff1681526020019081526020016000208960000390806001815401808255809150509060018203906000526020600020016000909192909190915055503373ffffffffffffffffffffffffffffffffffffffff166108fc8a9081150290604051600060405180830381858888f19350505050158015611993573d6000803e3d6000fd5b5050505050505050505050565b600360009054906101000a900460ff1681565b6000809054906101000a900473ffffffffffffffffffffffffffffffffffffffff1673ffffffffffffffffffffffffffffffffffffffff163373ffffffffffffffffffffffffffffffffffffffff16141515611a0e57600080fd5b6000809054906101000a900473ffffffffffffffffffffffffffffffffffffffff1673ffffffffffffffffffffffffffffffffffffffff167ff8df31144d9c2f0f6b59d69b8b98abd5459d07f2742c4df920b25aae33c6482060405160405180910390a260008060006101000a81548173ffffffffffffffffffffffffffffffffffffffff021916908373ffffffffffffffffffffffffffffffffffffffff160217905550565b60025481565b6000809054906101000a900473ffffffffffffffffffffffffffffffffffffffff1681565b80600460008281526020019081526020016000206001015442111515611bba576040517f08c379a00000000000000000000000000000000000000000000000000000000081526004018080602001828103825260438152602001807f43757272656e742074696d65206d757374206265206c6172676572207468616e81526020017f207374617274696e672074696d6520666f722070726f6a65637420746f20737481526020017f617274000000000000000000000000000000000000000000000000000000000081525060600191505060405180910390fd5b8160016003811115611bc857fe5b6004600083815260200190815260200160002060050160009054906101000a900460ff166003811115611bf757fe5b1415611cb65760046000828152602001908152602001600020600901543410151515611cb1576040517f08c379a000000000000000000000000000000000000000000000000000000000815260040180806020018281038252602b8152602001807f5468652076616c7565206e6565647320746f206578636565642074686520707281526020017f6573616c6520707269636500000000000000000000000000000000000000000081525060400191505060405180910390fd5b611df1565b60026003811115611cc357fe5b6004600083815260200190815260200160002060050160009054906101000a900460ff166003811115611cf257fe5b1480611d365750600380811115611d0557fe5b6004600083815260200190815260200160002060050160009054906101000a900460ff166003811115611d3457fe5b145b15611df05760046000828152602001908152602001600020600a01543410151515611def576040517f08c379a000000000000000000000000000000000000000000000000000000000815260040180806020018281038252602b8152602001807f5468652076616c7565206e6565647320746f206578636565642074686520707281526020017f6573616c6520707269636500000000000000000000000000000000000000000081525060400191505060405180910390fd5b5b5b60001515600360019054906101000a900460ff161515141515611ea2576040517f08c379a00000000000000000000000000000000000000000000000000000000081526004018080602001828103825260248152602001807f54686520656d657267656e63792073746f702066756e64696e6720697320616381526020017f746976650000000000000000000000000000000000000000000000000000000081525060400191505060405180910390fd5b3460046000858152602001908152602001600020600301600082825401925050819055506004600084815260200190815260200160002060060160003373ffffffffffffffffffffffffffffffffffffffff1673ffffffffffffffffffffffffffffffffffffffff168152602001908152602001600020349080600181540180825580915050906001820390600052602060002001600090919290919091505550600460008481526020019081526020016000206007013390806001815401808255809150509060018203906000526020600020016000909192909190916101000a81548173ffffffffffffffffffffffffffffffffffffffff021916908373ffffffffffffffffffffffffffffffffffffffff1602179055505060016003811115611fca57fe5b6004600085815260200190815260200160002060050160009054906101000a900460ff166003811115611ff957fe5b1415156120395760016004600085815260200190815260200160002060050160006101000a81548160ff0219169083600381111561203357fe5b02179055505b505050565b816004600082815260200190815260200160002060000160009054906101000a900473ffffffffffffffffffffffffffffffffffffffff1673ffffffffffffffffffffffffffffffffffffffff163373ffffffffffffffffffffffffffffffffffffffff1614151561213e576040517f08c379a00000000000000000000000000000000000000000000000000000000081526004018080602001828103825260298152602001807f5468652063616c6c65722073686f756c6420626520657175616c20746f20746881526020017f65206d616e61676572000000000000000000000000000000000000000000000081525060400191505060405180910390fd5b826004600082815260200190815260200160002060010154421015156121f2576040517f08c379a00000000000000000000000000000000000000000000000000000000081526004018080602001828103825260328152602001807f43757272656e742074696d652073686f756c64206265206c657373207468616e81526020017f20746865207374617274696e672074696d65000000000000000000000000000081525060400191505060405180910390fd5b8260046000868152602001908152602001600020600801908051906020019061221c929190612d6e565b5050505050565b6000808260006004600083815260200190815260200160002060060160003373ffffffffffffffffffffffffffffffffffffffff1673ffffffffffffffffffffffffffffffffffffffff1681526020019081526020016000208054905011151561231b576040517f08c379a00000000000000000000000000000000000000000000000000000000081526004018080602001828103825260408152602001807f5468652063616c6c65722073686f756c64206861766520636f6e74726962757481526020017f6564206174206c65617374206f6e636520746f207468652063616d706169676e81525060400191505060405180910390fd5b836004600082815260200190815260200160002060020154421115156123f5576040517f08c379a000000000000000000000000000000000000000000000000000000000815260040180806020018281038252604c8152602001807f43757272656e742074696d65206d75737420626520626967676572207468616e81526020017f2074686520656e642074696d6520666f72207468652063616d706169676e207481526020017f6f206861766520656e646564000000000000000000000000000000000000000081525060600191505060405180910390fd5b846004600082815260200190815260200160002060020154421115156124cf576040517f08c379a000000000000000000000000000000000000000000000000000000000815260040180806020018281038252604b8152602001807f5468652063616d706169676e206d757374206861766520656e6465642066697281526020017f73746c7920746f20636865636b20696620612063616d706169676e206973207581526020017f6e7375636365737366756c00000000000000000000000000000000000000000081525060600191505060405180910390fd5b600460008281526020019081526020016000206004015460046000838152602001908152602001600020600301541015156125be576040517f08c379a00000000000000000000000000000000000000000000000000000000081526004018080602001828103825260508152602001807f5365636f6e646c792c207468652063616d706169676e206d757374206861766581526020017f20612062616c616e6365206c657373207468616e2074686520676f616c20746f81526020017f20626520756e7375636365737366756c0000000000000000000000000000000081525060600191505060405180910390fd5b60009450600093505b6004600087815260200190815260200160002060060160003373ffffffffffffffffffffffffffffffffffffffff1673ffffffffffffffffffffffffffffffffffffffff168152602001908152602001600020805490508410156126a1576004600087815260200190815260200160002060060160003373ffffffffffffffffffffffffffffffffffffffff1673ffffffffffffffffffffffffffffffffffffffff1681526020019081526020016000208481548110151561268557fe5b90600052602060002001548501945083806001019450506125c7565b60008511151561273f576040517f08c379a00000000000000000000000000000000000000000000000000000000081526004018080602001828103825260368152602001807f54686520746f74616c20636f6e747269627574696f6e20666f7220746865207581526020017f7365722073686f756c6420626520706f7369746976650000000000000000000081525060400191505060405180910390fd5b6004600087815260200190815260200160002060060160003373ffffffffffffffffffffffffffffffffffffffff1673ffffffffffffffffffffffffffffffffffffffff1681526020019081526020016000208560000390806001815401808255809150509060018203906000526020600020016000909192909190915055503373ffffffffffffffffffffffffffffffffffffffff166108fc869081150290604051600060405180830381858888f19350505050158015612805573d6000803e3d6000fd5b50505050505050565b600080600080600080606080600080600460008c815260200190815260200160002060000160009054906101000a900473ffffffffffffffffffffffffffffffffffffffff169950600460008c8152602001908152602001600020600101549850600460008c8152602001908152602001600020600201549750600460008c8152602001908152602001600020600301549650600460008c8152602001908152602001600020600401549550600460008c815260200190815260200160002060050160009054906101000a900460ff169450600460008c815260200190815260200160002060070180548060200260200160405190810160405280929190818152602001828054801561297657602002820191906000526020600020905b8160009054906101000a900473ffffffffffffffffffffffffffffffffffffffff1673ffffffffffffffffffffffffffffffffffffffff168152602001906001019080831161292c575b50505050509350600460008c81526020019081526020016000206008018054600181600116156101000203166002900480601f016020809104026020016040519081016040528092919081815260200182805460018160011615610100020316600290048015612a275780601f106129fc57610100808354040283529160200191612a27565b820191906000526020600020905b815481529060010190602001808311612a0a57829003601f168201915b50505050509250600460008c8152602001908152602001600020600901549150600460008c8152602001908152602001600020600a015490508989898989898989898999509950995099509950995099509950995099509193959799509193959799565b6000809054906101000a900473ffffffffffffffffffffffffffffffffffffffff1673ffffffffffffffffffffffffffffffffffffffff163373ffffffffffffffffffffffffffffffffffffffff16141515612ae657600080fd5b612aef81612b6a565b50565b6000809054906101000a900473ffffffffffffffffffffffffffffffffffffffff1673ffffffffffffffffffffffffffffffffffffffff163373ffffffffffffffffffffffffffffffffffffffff16141515612b4d57600080fd5b6001600360016101000a81548160ff021916908315150217905550565b600073ffffffffffffffffffffffffffffffffffffffff168173ffffffffffffffffffffffffffffffffffffffff1614151515612ba657600080fd5b8073ffffffffffffffffffffffffffffffffffffffff166000809054906101000a900473ffffffffffffffffffffffffffffffffffffffff1673ffffffffffffffffffffffffffffffffffffffff167f8be0079c531659141344cd1fd0a4f28419497f9722a3daafe3b4186f6b6457e060405160405180910390a3806000806101000a81548173ffffffffffffffffffffffffffffffffffffffff021916908373ffffffffffffffffffffffffffffffffffffffff16021790555050565b828054828255906000526020600020908101928215612cdd579160200282015b82811115612cdc5782518260006101000a81548173ffffffffffffffffffffffffffffffffffffffff021916908373ffffffffffffffffffffffffffffffffffffffff16021790555091602001919060010190612c84565b5b509050612cea9190612dee565b5090565b828054600181600116156101000203166002900490600052602060002090601f016020900481019282601f10612d2f57805160ff1916838001178555612d5d565b82800160010185558215612d5d579182015b82811115612d5c578251825591602001919060010190612d41565b5b509050612d6a9190612e31565b5090565b828054600181600116156101000203166002900490600052602060002090601f016020900481019282601f10612daf57805160ff1916838001178555612ddd565b82800160010185558215612ddd579182015b82811115612ddc578251825591602001919060010190612dc1565b5b509050612dea9190612e31565b5090565b612e2e91905b80821115612e2a57600081816101000a81549073ffffffffffffffffffffffffffffffffffffffff021916905550600101612df4565b5090565b90565b612e5391905b80821115612e4f576000816000905550600101612e37565b5090565b905600a165627a7a72305820210f4781c1e9b22a0d2af2d214ab324b6b936c33e5ed9193394571c754339b280029",
  "source": "pragma solidity ^0.4.24;\n\n// EPM Library Usage\nimport \"openzeppelin-solidity/contracts/ownership/Ownable.sol\";\nimport \"./Proxy.sol\";\n\n\n/** @title A managment contract to store and manage all Campains for the platform.\n* This enables users to create new campagins and then other users can fund them.\n* Users can only fund campains that are currently running(have started and not\n* finished). If a user withdraws from a campaign, they can only do so if it does\n* not result in the campaign no longer getting funded.\n* @author Chris Maree - SoIdarity \n*/\ncontract CampaignManager is Ownable, Proxy{\n    /** @dev store the current state of the Camaign. \n    */\n    enum State{NotStarted, Running, Funded, UnderFunded}\n    \n    \n    /** @dev define the standard properties of a Campaign \n    * @notice the doners are a mapping of addresses to uints. This enables each\n    * donar to donate more than one time and for a record to be kept. Moreover,\n    * if a doner removes their donation, a negative value can be stored here to\n    * indicate the withdrawl\n    * @notice the donersAddresses is used to store an array of all donars that\n    * contributed as maps are not itterable by populated keys\n    */\n    struct Campaign {\n        address manager;\n        uint startingTime;\n        uint endingTime;\n        uint balance;\n        uint goal;\n        State state;\n        mapping(address=>int[]) doners;\n        address[] donersAddresses;\n        string ipfsHash;\n        uint presalePrice;\n        uint postsalePrice;\n    }\n    \n    /** @dev store the total number of campaigns. Useful for retreving all of them **/\n    uint public campaignCount;\n    \n    /**\n    * @dev Stop the creation of new campagins\n    */\n    bool public emergencyStop_stopCreation = false;\n    \n    /**\n    * @dev stops the fundion of existing campagins\n    */\n    bool public emergencyStop_stopFunding = false;\n    \n    /** @dev store all campaigns as a mapping to their unique ID **/\n    mapping(uint => Campaign) public campaigns;\n    \n    /**\n    * @dev Verify the times spesified for the campaign are valid\n    * @param _startingTime of the campaign (unix time stamp)\n    * @param _endingTime of the campaign (unix time stamp)\n    */\n    modifier validNewCampaignTime(uint _startingTime,uint _endingTime){\n        require(_startingTime >= now, \"Firstly, Start time must be larger than the current time\");\n        require(_endingTime > _startingTime,\"Secondly, the end time should be more than the starting time\");\n        _;\n    }\n    \n    /**\n    * @dev Verify the current time is past the start time of the camaign\n    * @param _campaignID unique identifer of the campaign\n    */\n    modifier campaignHasStarted(uint _campaignID) {\n        require(now > campaigns[_campaignID].startingTime, \"Current time must be larger than starting time for project to start\");\n        _;\n    }\n    \n    /**\n    * @dev checks if the campaign is yet to start\n    * @param _campaignID unique identifer of the campaign\n    */\n    modifier campaignNotStarted(uint _campaignID){\n        require(now < campaigns[_campaignID].startingTime, \"Current time should be less than the starting time\");\n        _;\n    }\n\n    /**\n    * @dev checks if the campain has ended (current time more than end time)\n    * @param _campaignID unique identifer of the campaign\n    */\n    modifier campaignEnded(uint _campaignID){\n        require(now > campaigns[_campaignID].endingTime, \"Current time must be bigger than the end time for the campaign to have ended\");\n        _;\n    }\n\n    /**\n    * @dev Verify the current time is not past the end time of the camaign\n    * @param _campaignID unique identifer of the campaign\n    */\n    modifier campaignHasNotEnded(uint _campaignID) {\n        require(now < campaigns[_campaignID].endingTime, \"Current time must be less than the end time for the campaign to have not ended\");\n        _;\n    }\n    \n    /**\n    * @dev checks if the campain has Succeeded (donation > than goal)\n    * @param _campaignID unique identifer of the campaign\n    */\n    modifier campaignSucceeded(uint _campaignID){\n        require(campaigns[_campaignID].balance > campaigns[_campaignID].goal, \"The balance of the campaign must be more than the goal\");\n        _;\n    }\n\n    /**\n    * @dev checks if the campain has failed (donation < than goal)\n    * @param _campaignID unique identifer of the campaign\n    */\n    modifier campaignUnsuccessful(uint _campaignID) {\n        require(now > campaigns[_campaignID].endingTime,\"The campaign must have ended firstly to check if a campaign is unsuccessful\");\n        require(\n            campaigns[_campaignID].balance < campaigns[_campaignID].goal,\n            \"Secondly, the campaign must have a balance less than the goal to be unsuccessful\");\n        _;\n    }\n\n    /**\n    * @dev checks if a campain has been funded, and therefore paid out. \n    * @notice This assertion prevents manager's from withdrawing twice from a fund.\n    * @param _campaignID unique identifer of the campaign\n    */\n    modifier campaignNotFunded(uint _campaignID){\n        require(campaigns[_campaignID].state != State.Funded,\"The state of the campaign must be not funded to define an unfunded campaign\");\n        _;\n    }\n    \n    /**\n    * @dev Verify that the donation will not cause the campaign to drop below\n    * its goal. This prevents someone from making a campaign that would succeed,\n    * fail due to cancelling their contribution\n    * @notice value is required as the user has the choice to either cancle or\n    * reduce their donation.\n    * @param _campaignID unique identifer of the campaign\n    * @param _value is the amount that the donar wants to reduce their donation by\n    */\n    modifier campaignWillNotDropBelowGoal(uint _campaignID, uint _value) {\n        // We only need to do this check if the campaign has been funded thus far, with the balance being more than the goal\n        if(campaigns[_campaignID].balance>campaigns[_campaignID].goal){\n            require(\n                campaigns[_campaignID].balance-_value > campaigns[_campaignID].goal,\n                \"The value of the campaign balance after the reduction will be more than the goal\");\n        }\n        _;\n    }\n    \n    /**\n    * @dev Verify that the reduction from a donation will not cause the donation\n    * to drop below zero, and as such enabling the user to take out more than\n    * they deposited. Moreover, this check ensures that a user who did not donate\n    * cant withdraw as this assert will fail as their total donation balance will\n    * be zero.\n    * @notice the function needs to check the total donation for the user by\n    * summing over all previous donations\n    * @param _campaignID unique identifer of the campaign\n    * @param _value is the amount that the donar wants to reduce their donation by\n    */\n    modifier adequetDonationToReduce(uint _campaignID, uint _value){\n        int totalDonation = 0;\n        for (uint i = 0; i < campaigns[_campaignID].doners[msg.sender].length; i++){\n            totalDonation += campaigns[_campaignID].doners[msg.sender][i];\n        }\n        require(\n            totalDonation-int(_value) >= 0, \n            \"The sum of all donations for a particular user should be more than 0 to enable any kind of donation reduction\");\n        _;\n    }\n    \n    /**\n    * @dev checks that the caller of the function is the campaign's manager;\n    * This is the person that create the campaign.\n    * @param _campaignID unique identifer of the campaign\n    */\n    modifier onlyManager(uint _campaignID){\n        require(msg.sender == campaigns[_campaignID].manager,\"The caller should be equal to the manager\");\n        _;\n    }\n    /**\n    * @dev checks if a caller of the function is a Contributer to the campaign\n    * @notice If they have contributed, there will be some items within the \n    * doners array representing donations.\n    * @param _campaignID unique identifer of the campaign\n    */\n    modifier onlyContributer(uint _campaignID){\n        require(campaigns[_campaignID].doners[msg.sender].length > 0,\"The caller should have contributed at least once to the campaign\");\n        _;\n    }\n    \n    /**\n    * @dev Prevents the creation of new campaigns\n    */\n    modifier emergencyStop_Creation(){\n        require(emergencyStop_stopCreation == false, \"The emergency stop creation is active\");\n        _;\n    }\n    \n    /**\n    * @dev Prevents the funding of new campaigns\n    */\n    modifier emergencyStop_Funding(){\n        require(emergencyStop_stopFunding == false, \"The emergency stop funding is active\");\n        _;\n    }\n\n    /**\n    * @dev Checks funding value\n    */\n    modifier validPrice(uint _campaignID){\n        if (campaigns[_campaignID].state == State.Running) {\n            require(msg.value >= campaigns[_campaignID].presalePrice, \"The value needs to exceed the presale price\");\n        } else if (campaigns[_campaignID].state == State.Funded || campaigns[_campaignID].state == State.UnderFunded) {\n            require(msg.value >= campaigns[_campaignID].postsalePrice, \"The value needs to exceed the presale price\");\n        }\n        _;\n    }\n    \n     /** @dev Assign owner and reset campaign */\n    constructor() \n        public {\n        owner = msg.sender;\n        campaignCount = 0;\n    }\n    \n    function enableEmergencyStop_Creation()\n        public\n        onlyOwner\n    {\n        emergencyStop_stopCreation = true;\n    }\n    \n    function enableEmergencyStop_Funding()\n        public\n        onlyOwner\n    {\n        emergencyStop_stopFunding = true;\n    }\n    \n    /**\n    * @dev Generate a new campaign struct and store it. Assign manager and values\n    * @notice this sets the inital value of the State to NotStarted\n    * @param _startingTime unix time stamp of when the campaign will start\n    * @param _endingTime unix time stamp of when the campaign will end\n    * @param _goal value of the campaign (in ETH).\n    * @param _ipfsHash represents the campain information on IPFS in a hash\n    */\n    function createCampaign(\n        uint _startingTime, \n        uint _endingTime, \n        uint _goal, \n        string _ipfsHash,\n        uint _presalePrice,\n        uint _postsalePrice\n    ) \n        public\n        validNewCampaignTime(_startingTime,_endingTime)\n        emergencyStop_Creation\n        returns(uint)\n    {\n        address[] memory emptydonersAddresses;\n        campaigns[campaignCount] = Campaign({\n            manager: msg.sender,\n            startingTime: _startingTime,\n            endingTime: _endingTime,\n            balance: 0,\n            goal: _goal,\n            state: State.NotStarted,\n            donersAddresses: emptydonersAddresses,\n            ipfsHash: _ipfsHash,\n            presalePrice: _presalePrice,\n            postsalePrice: _postsalePrice\n        });\n        campaignCount += 1;\n        return campaignCount;\n    }\n    \n    /**\n    * @dev Enable anyone to donate to a campaign. The campaign must have started,\n    * have not finished.\n    * @notice this changes the state of a campaign from NotStarted -> Running\n    * @param _campaignID unique identifer of the campaign\n    */\n    function fundCampaign(uint _campaignID) \n        public\n        payable\n        campaignHasStarted(_campaignID)\n        validPrice(_campaignID)\n        emergencyStop_Funding\n    {\n        campaigns[_campaignID].balance += msg.value;\n        // Need to implicity typecast the msg.value for as donars can be\n        // negative when withdrawing\n        campaigns[_campaignID].doners[msg.sender].push(int(msg.value));\n        // There is no point in storing a doners address multiple times in the\n        //donersAddresses array so only add if you this is your first contribution\n        // if(campaigns[_campaignID].doners[msg.sender].length==0){\n        campaigns[_campaignID].donersAddresses.push(msg.sender);         \n        // }\n        if (campaigns[_campaignID].state != State.Running){\n            campaigns[_campaignID].state = State.Running;\n        }\n    }\n    \n    /**\n    * @dev Enable any donar to reduce their donation. The campaign must have,\n    * started have not finished and their reduction must not make a project that\n    * would succeed fail due to the reduction.\n    * @notice we dont need to check the state of the campain as you would only\n    * call this function if you had at some point donated and the check is done \n    * there (function fundCampaign).\n    * @param _campaignID unique identifer of the campaign\n    * @param _value the amount bywhich the campaign is reduced\n    */\n    function reduceDontation(uint _campaignID, uint _value)\n        public\n        campaignHasStarted(_campaignID)\n        campaignHasNotEnded(_campaignID)\n        campaignWillNotDropBelowGoal(_campaignID, _value)\n        adequetDonationToReduce(_campaignID, _value)\n    {\n        campaigns[_campaignID].balance -= _value;\n        // store the reduction in the doners respective array as a negative value\n        // preserving a history of reductions. The sum of this array is their\n        // respective donation\n        campaigns[_campaignID].doners[msg.sender].push(-int(_value));\n        msg.sender.transfer(_value); //refund the user for the Ether they sent in\n    }\n    \n    /**\n    * @dev Enable the campaign manager to withdraw the funds donated after the \n    * period is finished. The state of the campaign.state defines if the ownerc\n    * @notice The campaign state changes from Running -> Funded\n    * @param _campaignID unique identifer of the campaign\n    */\n    function withdrawCampaignFunds(uint _campaignID)\n        public\n        onlyManager(_campaignID)\n        campaignEnded(_campaignID)\n        campaignSucceeded(_campaignID)\n        campaignNotFunded(_campaignID)\n    {\n        // Note that we dont have to change the balance of the campaign as we\n        // prevent double withdraws by checking the state of the campaign. \n        // Leaving the balance within the campaign enables an easy way to sender\n        // the total funds sent to the campaign.\n        campaigns[_campaignID].state = State.Funded;\n        msg.sender.transfer(campaigns[_campaignID].balance);\n    }\n    \n    /**\n    * @dev Enables someone who contributed to a failed campaign to get back \n    * their contributions back. This is a sum of all their contributions\n    * period is finished. \n    * @notice The campaign state changes from Running -> Failed\n    * @param _campaignID unique identifer of the campaign\n    */\n    function refundFailedCampaign(uint _campaignID)\n        public\n        onlyContributer(_campaignID)\n        campaignEnded(_campaignID)\n        campaignUnsuccessful(_campaignID)\n    {\n        uint totalContributed = 0;\n        for (uint i = 0;i < campaigns[_campaignID].doners[msg.sender].length; i++){\n            totalContributed += uint(campaigns[_campaignID].doners[msg.sender][i]);\n        }\n        // Take away their whole contribution from their profile. This means\n        // that if they try redraw again the sum total == 0. The require is here\n        // to ensure that if the user calls again the function will not preform\n        // a transaction of 0 ether and will throw\n        require(totalContributed > 0, \"The total contribution for the user should be positive\");\n        campaigns[_campaignID].doners[msg.sender].push(-int(totalContributed));\n        msg.sender.transfer(totalContributed);\n    }\n\n    /**\n    * @dev Enables a fund manager to update the ipfs hash on an entry in the \n    * case they change it. \n    * @notice They can ONLY do this before a fund is sstarted.\n    * @param _campaignID unique identifer of the campaign\n    * @param _newHash defines the new IPFS hash for the campaign\n    */\n    function updateIpfsHash(uint _campaignID, string _newHash)\n        public\n        onlyManager(_campaignID)\n        campaignNotStarted(_campaignID)\n    {\n        campaigns[_campaignID].ipfsHash = _newHash;\n    }\n    \n    function fetchCampaign(uint _campaignID)\n        public\n        view\n        returns\n        (address manager,\n        uint startingTime,\n        uint endingTime,\n        uint balance,\n        uint goal,\n        State state,\n        address[] donersAddresses,\n        string ipfsHash,\n        uint presalePrice,\n        uint postsalePrice)\n    {\n        manager = campaigns[_campaignID].manager;\n        startingTime = campaigns[_campaignID].startingTime;\n        endingTime = campaigns[_campaignID].endingTime;\n        balance = campaigns[_campaignID].balance;\n        goal = campaigns[_campaignID].goal;\n        state = campaigns[_campaignID].state;\n        donersAddresses = campaigns[_campaignID].donersAddresses;\n        ipfsHash = campaigns[_campaignID].ipfsHash;\n        presalePrice = campaigns[_campaignID].presalePrice;\n        postsalePrice = campaigns[_campaignID].postsalePrice;\n        return (manager, startingTime, endingTime, balance, goal, state, donersAddresses, ipfsHash, presalePrice, postsalePrice);\n    }\n}",
  "sourcePath": "/Users/chris/Projects/VaporPower/contracts/CampaignManager.sol",
  "compiler": {
    "name": "solc",
    "version": "0.4.24+commit.e67f0147.Emscripten.clang"
  },
  "schemaVersion": "2.0.1",
  "updatedAt": "2018-11-04T01:13:12.985Z"
}